:020000040800F2
:100000002816002001010008AD020008AF02000818
:10001000B3020008B7020008BB020008000000009D
:10002000000000000000000000000000BF02000807
:10003000C102000800000000C3020008C502000859
:100040001B0100081B0100081B0100081B01000820
:100050001B0100081B0100081B0100081B01000810
:100060001B0100081B0100081B0100081B01000800
:100070001B0100081B0100081B0100081B010008F0
:100080001B0100081B0100081B0100081B010008E0
:10009000271100081B0100081B01000805030008C8
:1000A0001B010008A70A00081B0100081B0100082B
:1000B0001B0100081B0100081B0100081B010008B0
:1000C0001B0100081B0100081B0100081B010008A0
:1000D0001B0100081B010008C70200081B010008E3
:1000E0001B0100081B0100081B010008DFF80CD0F1
:1000F00004F078F800480047450200082816002060
:100100000648804706480047FEE7FEE7FEE7FEE7B1
:10011000FEE7FEE7FEE7FEE7FEE7FEE7473B0008F7
:10012000ED00000810B50446002C03DD2B205749D4
:10013000087003E02D20554908706442544894FB30
:10014000F0F0303051494870514894FBF0F100FB19
:100150001140504990FBF1F030304C4988704D48C7
:1001600094FBF0F100FB114042F2107190FBF1F0B2
:1001700030304649C87042F2107094FBF0F100FB39
:1001800011404FF47A7190FBF1F030303F49087123
:100190004FF47A7094FBF0F100FB1140642190FB66
:1001A000F1F0303039494871642094FBF0F100FBE4
:1001B00011400A2190FBF1F03030344988710A2057
:1001C00094FBF0F100FB114030303049C871082138
:1001D0002E4800F014FC10BD70B506460C461546BE
:1001E000304600F094FB2046FFF79CFF1DB10A202B
:1001F00000F08DFB02E0202000F089FB70BD2DE9AE
:10020000FC474FF0000A18E0504603F0D4FE0646C3
:10021000214A224B03F0E0FD044604F039FC8046FD
:1002200000221F4B03F0D8FDCDE9000103F000FFD1
:100230001C4941F82A000AF1010ABAF57A7FE3DB8A
:10024000BDE8FC874FF4A06002F01AFE00F022F92E
:1002500000F0F2F800F0BDFE642000F04FF900F06D
:10026000D6F900F0E3FBFFF7CAFF00F010FB6420B3
:1002700000F044F908E00C480168002000F095F90E
:100280004FF4FA7000F03AF9F5E70000081000208A
:1002900040420F00A0860100D1EB2DAF65BC793F35
:1002A0000000E03F6800002008000020704700BF09
:1002B000FEE700BFFEE700BFFEE700BFFEE77047B6
:1002C00070477047704710B54FF45871514802F0AD
:1002D00093FD012807D14FF458714E4802F0B6FD46
:1002E0004C4802F009FD40F224414A4802F084FDE6
:1002F00038B12021474802F076FD2021454802F020
:10030000A5FD10BD2DE9FF5F4FF4807002F09AFE4D
:1003100000287CD040480088401C3F4908803F4866
:10032000007890B901203D4908703D48006840F4CC
:1003300080703B490860081F006820F48070091F26
:10034000086000203749088059E0002033490870D0
:100350003449088803F02AFE019003F056FE8046D7
:100360000022314B03F0AAFD064600222F4B03F07A
:1003700033FD00224FF08043CDE9020103F09EFDE2
:10038000044600222A4B03F027FD824603F050FE6C
:1003900022490862086A274903F066FE13D21F4803
:1003A0004078401C052190FBF1F201FB12001B4933
:1003B00048700846016A4278083040F8221000F080
:1003C000E2FC1649C8611648001F006840F48070BE
:1003D0001349091F0860081D006820F48070091D7A
:1003E00008600F480C38006820F480700C490C3904
:1003F0000860081D006820F48070091D08604FF433
:10040000807002F030FE4FF4807002F017FEBDE8FD
:10041000FF9F00000044004018000020381000201A
:100420000C0401402404004080842E4100407540AB
:10043000000059400000164408B501210C2001F0CD
:10044000D1F810208DF8030003208DF802004FF43E
:100450008040ADF8000069460A4801F087F90120A4
:100460000949086008BD09480068B0F5FA7F08D35B
:1004700000200649086004480068C0430449C1F8E8
:10048000B8017047000C0140B881214228000020CB
:10049000008021424FF0E020006920F002004FF080
:1004A000E02108610920264908700846007800EB21
:1004B0004001C1EBC0104FF6FF7101EAC0002149B5
:1004C0000880704701461E4A12784A434FF0E023E5
:1004D0005A6100229A6101221A6100BF4FF0E022A6
:1004E000106900F001021AB100F48032002AF5D040
:1004F00000224FF0E0231A619A6170470146114AC9
:1005000012884A434FF0E0235A6100229A61012287
:100510001A6100BF4FF0E022106900F001021AB129
:1005200000F48032002AF5D04FF0E022126922F068
:1005300001024FF0E0231A6100229A617047000027
:100540001E0000202000002010B504460021204697
:1005500003F08AFD02D284F0004010BD2046FCE783
:100560007B487C49486000208860C860086108605A
:100570004861C86188610862704770B50446764971
:10058000204603F07BFD01D2734C05E07349204601
:1005900003F06AFD00D2714C204603F01DFD05B248
:1005A0002946012000F002FE70BD70B504460D46DC
:1005B00004EB84026A4800EB82000169284603F0DC
:1005C0005DFD06D2012104EB8402654800F822108B
:1005D00016E004EB8402624800EB820001692846C1
:1005E00003F042FD06D2FF2104EB84025C4800F8D0
:1005F000221005E0002104EB8402594800F8221083
:1006000004EB8401564800EB8100056170BD10B514
:1006100000205449088048604880012000F096FD81
:100620004FF4FA70FFF76AFF0121084600F0A6FDBB
:100630004FF4FA70FFF762FF00220A21012000F058
:10064000CFFD4FF49670FFF759FF0020FFF795FF9D
:10065000FFF786FF10BD2DE9F0410446424D00260C
:100660004248D0F840013B4948614048D0F8440135
:1006700008603F480068052868D300203C490860AE
:10068000344A1168506903F031FB8046FFF75CFF84
:100690000746294603F0E8FC05D200BF0020334995
:1006A00081F834014DE02B4A5169106803F01EFBBC
:1006B000284988610A469169106903F0C5FA2549FD
:1006C00008610A465168906903F016FB2149C86128
:1006D000C869002103F0D2FC07D21E49C869254928
:1006E00003F0B2FA1B49C8610CE01A49C86900213D
:1006F00003F0BAFC06D21749C8691F4903F0A4FAEF
:100700001449C861194890F83401012809D11149E8
:10071000C869002103F0A8FC11D200200D49C8616E
:100720000DE0124890F93401401C40B90949C869EC
:10073000002103F0A3FC02D200200649C86105484D
:10074000C669012C02D13046FFF717FFBDE8F081E2
:1007500000401C461410002000C05A4500C05AC575
:1007600090110020181200200AD7233C5C100020B2
:100770002400002000803B440000E1C30020002151
:10078000A54A82F82E11A2F83011A2F83211117088
:1007900000BF04E00022A049491C0A54401CFF2865
:1007A000F8DD002003E000229C490A54401C2D285B
:1007B000F9DB002028E0002200EB80039749333169
:1007C00001EB83018A6000EB80039449333101EB34
:1007D00083014A6000EB80039049333101F8232004
:1007E00000EB800301EB83014A7000EB80038B492F
:1007F000333101EB8301CA6000EB80038749333159
:1008000001EB83010A61401C0428D4DB704700B56A
:100810008BB00121084600F0D8FE814800907E4848
:10082000401C0190002002904FF480700390002043
:1008300004908020059000200690079008904FF4C7
:100840004050099000200A906946764802F08CF8E2
:100850000121744802F0B3F8012240217048001FC2
:1008600002F00AFA0BB000BD08B54FF4E06002F0E8
:1008700007FB26208DF8000001208DF801008DF87F
:1008800002008DF80300684602F0FFFA08BD00B5CB
:1008900085B00121042000F0A5FE0121480400F0EC
:1008A000AEFE0420ADF8100018208DF813000320D0
:1008B0008DF8120004A95C4800F058FF0820ADF83C
:1008C000100004208DF8130004A9574800F04EFFD3
:1008D0004FF4165000900020ADF80400ADF806006B
:1008E000ADF80800ADF80C000C20ADF80A00694620
:1008F0004B48001F02F003F9FFF789FF0121484828
:10090000001F02F088F9FFF739FF05B000BD10B5F0
:10091000044600BF4248001F008800F04000002845
:10092000F8D021463E48001F02F0E2F910BD70B534
:100930000446002503E0605DFFF7E9FF6D1C605D84
:100940000028F8D170BD10B5364802F04FF8C0F558
:1009500080703149A1F830010846B0F8300140B943
:100960000020A1F83001A1F8320181F82E010870B1
:1009700010BD2948B0F830012749B1F8321188423A
:1009800034D1254890F82E01401C234981F82E01CE
:10099000084690F82E0104282FDD22486C38C06EDE
:1009A0004FF6FE7108401F496C39C866002404E008
:1009B00000211948401C0155641C1748B0F830014B
:1009C000A042F5DC0020144981F82E01A1F8320183
:1009D000A1F83001481C13496C39886788150867ED
:1009E0000846C06E40F00100C86606E00A48B0F84C
:1009F00030010949A1F83201BAE700BFB8E770B584
:100A000005460E46002403E0285DFFF780FF641CC6
:100A1000B442F9DB70BD00005C1000205D110020C5
:100A2000044400406C000240000801401FB5012151
:100A3000C80200F0D7FD484801F04AFC464800F0E3
:100A4000E3FFC720ADF8080040F2CF20ADF8040066
:100A50000020ADF80A00ADF806008DF80C0001A9E1
:100A60003D4801F0A5F801213B4801F0D7FE0122E5
:100A70001146394801F013FC0121374801F0F4FC1C
:100A800019208DF8000003208DF801008DF8020078
:100A900001208DF80300684602F0F7F901212E4885
:100AA00001F0E2FB1FBD10B501212B4801F0A5FEAE
:100AB00001284FD129480068401C2849086028486F
:100AC0000068401C2649086026480068401C2549EB
:100AD000086025484068401C234948602348006856
:100AE000401C224908602248006A401C20490862D4
:100AF000FFF7B9FC00F0CBFB0120FFF7ACFD1A4873
:100B000040680F2802D3002017494860184890F821
:100B1000200000F0010070B9002000F091F91548A4
:100B2000007801280AD1FF201149087040F2022004
:100B300000F0CCFA02E0012000F082F909480068D8
:100B4000B0F57A6F02D300200649086001210248FF
:100B500001F064FE10BD0000002C014028000020C0
:100B6000240000202C00002038100020300000203D
:100B7000F41100203A0000200020A54908704870B8
:100B8000486088600021A248C160016141618161C3
:100B900000209F49C86170471FB50121092000F05E
:100BA00021FD4FF40070ADF80C0002208DF80E000E
:100BB00010208DF80F0003A9964800F0D7FD1720EC
:100BC0008DF8000000208DF801008DF80200012052
:100BD0008DF80300684602F058F94FF48070ADF8C4
:100BE0000C0028208DF80F0003A98A4800F0BEFDF4
:100BF0000821012000F0D0FE4FF480700190002009
:100C00008DF8080008208DF8090001208DF80A00F1
:100C100001A802F0B1F91FBD7F48006840F4807060
:100C20007D490860081D006820F48070091D086077
:100C300070470EB50121022000F0E1FC774801F079
:100C400047FB764800F0E0FE4FF6FF70ADF8040079
:100C50004720ADF800000020ADF80600ADF8020016
:100C60008DF8080069466D4800F0A2FF01216B482D
:100C700001F0FAFB0121694801F0F6FAFFF78CFF59
:100C8000FFF7CAFFFFF778FF4FF40071614800F0EB
:100C90001CFE0EBD10B54FF4807002F0E4F94FF465
:100CA000807002F0CBF910BD5B480838006840F452
:100CB0008070594908390860081D006840F4807048
:100CC000091D0860704754480838006820F4807097
:100CD000514908390860081D006820F48070091D1A
:100CE000086070474C48001D006840F480704A4915
:100CF000091D0860081F006820F48070091F086043
:100D00007047002106E00A2100BF0A00A1F101039B
:100D100099B2FAD10200A0F1010398B2F3D1704761
:100D200010B509213B4800F0C1FD58BB4FF40071DC
:100D3000384800F0C8FDFFF7ADFF002034490870C7
:100D40003548006840F4807033490860081D006829
:100D500020F48070091D08602F480838006840F4AE
:100D600080702D4908390860081D006840F48070C3
:100D7000091D08601420FFF7C4FF4FF400712548D7
:100D800000F0A3FD10BD2DE9F04100240025002650
:100D9000002701241CE01E4A083252F8251052F8A0
:100DA000240003F06BF900D22546194A083252F8A4
:100DB000261052F8240003F057F900D226461448B2
:100DC000083050F82410384602F03EFF0746641CF5
:100DD000052CE0DB0E488168384602F035FF0746F7
:100DE0000B48083050F82510384602F07FFF804647
:100DF0000748083050F82610404602F077FF0746B3
:100E00000749384602F0AAFF07463846BDE8F08198
:100E100038100020000C014008040140000400408C
:100E20000000404008B50090009A0A70009A120A2B
:100E30004A70009A120C8A70009A120ECA7008BD8D
:100E400010B504465CB94249D1F844014149FFF765
:100E5000E9FF04F500703F4900F038F913E0012C78
:100E600011D13B49D1F840013A49FFF7DBFF38493E
:100E7000D1F83C013749091DFFF7D4FF04F5007094
:100E8000344900F023F910BD08B500220092CA7859
:100E900000928A78009B42EA032200924A78009BE3
:100EA00042EA032200920A78009B42EA032200925F
:100EB000009A026008BD10B52648808900F4706071
:100EC000B0F5007F22D12348007BC0F30314052C2A
:100ED0002FDA2048007B00F00F00012829D104EB15
:100EE00084021D4901EB820101F10C0019491731FF
:100EF000FFF7CAFF04EB8402174901EB820101F1FD
:100F0000080014491B31FFF7BFFF12E01148808928
:100F100000F4706068B90F48007B00F00F000B28E8
:100F200007D10C48007BC0F30310012801D100F069
:100F30008DF910BD10B502460B460021002000BF00
:100F400003E0545C0444E0B2491C9942F9DB10BD53
:100F50005C100020F41100209011002008B5012140
:100F6000092000F03FFB0121480600F048FB012169
:100F70004FF4EA1000F0CBFC4FF48070ADF80000A5
:100F800048208DF8030003208DF8020069466B4865
:100F900000F0ECFB4FF40070ADF8000018208DF865
:100FA000030003208DF802006946644800F0DEFB70
:100FB00008BD08B514208DF8000000208DF8010050
:100FC0008DF8020001208DF80300684601F05DFFF6
:100FD00008BD70B588B00026002400250121480610
:100FE00000F00DFBFFF7BAFFFFF7E3FF544802F0F4
:100FF00043F805A802F064F900208DF81A008DF876
:101000001B008DF81C008DF81D008DF81E008DF85A
:101010001F008DF816008DF8170005208DF81800B8
:1010200000208DF819000920ADF8140005A94448E6
:1010300002F03BF800208DF80E008DF80F00012023
:101040008DF810008407200CADF80400A0B2ADF8B4
:1010500006002546280CADF80800A8B2ADF80A0035
:101060000020ADF80C0001208DF8110001A802F05D
:10107000A6F801208DF80E0000208DF80F00012049
:101080008DF810004FF05874200CADF80400A0B299
:10109000ADF806002B4D280CADF80800A8B2ADF84D
:1010A0000A0001A802F08BF801220221244802F074
:1010B00085FB00BF03E0002023498855761C082EDD
:1010C000F9DB00202049086208B070BDF0B585B09A
:1010D00006460D46002700240096002001908DF85A
:1010E00008008DF8090008208DF80A0000BF06E00E
:1010F00015F8011B0DF10B000155601CC4B2082C42
:10110000F6DB69460E4802F049F9074601E0601C2B
:10111000C4B239460A4802F0D9F9012801D0FF2C9F
:10112000F5D105B0F0BD10B5074A0C3200210448D6
:1011300002F029FAFFF7BFFE10BD0000000C0140CD
:10114000006400400000E0FFF411002070B5044688
:101150000025002000EB0415552064490872552134
:10116000624841728172C172017341738173C173AC
:1011700000F108012846FFF7A9FF70BD70B50446CD
:101180000D460026002000EB0410461C574805724F
:10119000552141728172C172017341738173C173B0
:1011A00000F108013046FFF791FF70BD70B50546AC
:1011B0000C460026002000EB0510861C200A4B4937
:1011C00008720846447255218172C17201734173DD
:1011D0008173C17300F108013046FFF777FF70BDDE
:1011E0002DE9F04104460D4616460027002000EB8D
:1011F000041000F10A073D480572467255218172BC
:10120000C172017341738173C17300F108013846E3
:10121000FFF75CFFBDE8F08170B5044600250020B3
:1012200000EB041000F10F055520304908725521DC
:101230002E4841728172C172017341738173C1730F
:1012400000F108012846FFF741FF70BD2848017EE4
:10125000C07D01EB002000B2244908802448817E33
:10126000407E01EB002000B2204948802048C07E2B
:1012700001061F48007F01EB00411D48407F01EB44
:1012800000211B48807F08441849486070472DE9B9
:10129000FC5F1649B1F9020002F07FFE1549C1F862
:1012A0003C011249486802F078FE8346124902F078
:1012B00055FD824602F0A9FE80464FF066320F4B84
:1012C00002F08AFD00220E4BCDE9000102F0F6FD8E
:1012D000064600220B4B02F07FFD044602F0A8FEFA
:1012E0000449C1F84001BDE8FC9F0000181200202D
:1012F000F41100205C10002000803B4766663940F6
:1013000000408F400000F83FDF48006840F00100D7
:10131000DD49086008464068DC490840DA49486011
:1013200008460068DA490840D7490860084600685E
:1013300020F4802008600846406820F4FE004860E1
:101340004FF41F0088607047CF49096821F480314D
:10135000CD4A11601146096821F480211160B0F571
:10136000803F03D0B0F5802F0ED106E0C649096852
:1013700041F48031C44A116007E0C349096841F46F
:10138000A021C14A116000E000BF00BF704710B546
:1013900001460022002300204A11012A02D1BA4C42
:1013A000236806E0022A02D1B74C236A01E0B64C5A
:1013B000636A01F01F02012494401C400CB101201B
:1013C00000E0002010BD38B500200090002400256A
:1013D00000BF3120FFF7DBFF05460098401C00905E
:1013E0000098B0F5A06F01D0002DF2D03120FFF7AA
:1013F000CEFF08B1012400E00024204638BD01469C
:101400000020A14A106820F0F80040EAC1001060F6
:101410007047A04908607047024600209A4B586800
:1014200020F47C1042EA01031843974B5860704740
:1014300098490866704701460020934A506820F09A
:1014400003000843506070478F48406800F00C006C
:101450007047014600208C4A506820F0F000084395
:101460005060704701460020874A506820F4E060D1
:1014700008435060704701460020834A506820F4BA
:10148000605040EAC1005060704729B17E4A527AEC
:1014900002437D4B5A7204E07B4A527A82437A4B74
:1014A0005A7270477B49D831086070470146002066
:1014B000754A506820F4404008435060704700214E
:1014C000714A20321170704A82F82010012802D02F
:1014D00004280AD104E001216B4A2032117005E092
:1014E0000521694A2032117000E000BF00BF70473B
:1014F0006949086070476449096A0143624A116298
:101500007047654944390860704730B500210022B2
:10151000002400235C4D6D6805F00C0121B1042905
:1015200005D0082923D105E05C4D056022E05B4D24
:1015300005601FE0544D6D6805F47012524D6D68E2
:1015400005F48034022505EB92421CB9544D5543F5
:1015500005600BE04C4D6D6805F400351DB1504D34
:101560005543056002E04D4D5543056002E04B4D8B
:10157000056000BF00BF444D6D6805F0F00109092A
:10158000484D6B5C0568DD4045603F4D6D6805F476
:10159000E061090A434D6B5C4568DD4085603A4D6A
:1015A0006D6805F46051C90A3E4D6B5C4568DD40CD
:1015B000C560354D6D6805F44041890B3A4D6B5C53
:1015C000C568B5FBF3F5056130BD29B12E4A5269F6
:1015D00002432D4B5A6104E02B4A526982432A4B45
:1015E0005A61704729B1284A92690243264B9A6191
:1015F00004E0254A92698243234B9A61704729B1DE
:10160000214AD2690243204BDA6104E01E4AD269C2
:1016100082431D4BDA61704729B11B4AD2680243ED
:10162000194BDA6004E0184AD2688243164BDA603C
:10163000704729B1144A12690243134B1A6104E03E
:10164000114A12698243104B1A617047124940399E
:10165000086070470F49C86470470B49C8717047EC
:101660000948406A40F08070074948627047014667
:101670000020054A92680A400AB1012000E00020DB
:101680007047014988727047001002400000FFF85F
:10169000FFFFF6FE000042428004424200127A0040
:1016A00000093D003B0000204B00002010B504461F
:1016B000CC48844208D101210420FFF7ADFF00216E
:1016C0000420FFF7A9FF46E0C748844208D1012162
:1016D0000820FFF7A1FF00210820FFF79DFF3AE057
:1016E000C248844208D101211020FFF795FF002154
:1016F0001020FFF791FF2EE0BD48844208D1012160
:101700002020FFF789FF00212020FFF785FF22E03E
:10171000B848844208D101214020FFF77DFF002115
:101720004020FFF779FF16E0B348844208D1012139
:101730008020FFF771FF00218020FFF76DFF0AE096
:10174000AE48844207D101218015FFF765FF0021D3
:10175000A015FFF761FF10BD10B501210846FFF786
:101760005BFF00210120FFF757FF10BD2DE9F0417D
:10177000024600250026002000230024002791F8BF
:1017800003C00CF00F0591F803C00CF0100CBCF175
:10179000000F03D091F802C04CEA050591F800C093
:1017A000BCF1000F31D0146800202BE04FF0010C89
:1017B0000CFA00F3B1F800C00CEA03069E4220D1F7
:1017C00083004FF00F0C0CFA03F7BC4305FA03FC3F
:1017D0004CEA040491F803C0BCF1280F06D14FF085
:1017E000010C0CFA00FCC2F814C00AE091F803C026
:1017F000BCF1480F05D14FF0010C0CFA00FCC2F807
:1018000010C0401C0828D1D31460B1F800C0BCF14E
:10181000FF0F34DD546800202EE000F1080C4FF07B
:10182000010808FA0CF3B1F800C00CEA03069E4266
:1018300021D183004FF00F0C0CFA03F7BC4305FADB
:1018400003FC4CEA040491F803C0BCF1280F05D155
:1018500000F1080C08FA0CF8C2F8148091F803C0E3
:10186000BCF1480F07D100F1080C4FF0010808FA4D
:101870000CF8C2F81080401C0828CED35460BDE894
:10188000F0814FF6FF710180022181700421C17047
:1018900070470246002093680B400BB1012000E026
:1018A000002070470146886880B2704702460020D9
:1018B000D3680B400BB1012000E0002070470146C7
:1018C000C86880B2704701617047416170470AB1D2
:1018D000016100E041617047C16070474FF48032A0
:1018E0000A4382618161826182698269704702462E
:1018F0000020434B18684FF68073184040EA0210EE
:1019000008433F4B186070473E49C8617047F0B5C7
:101910000A46002300240021002500F00046B6F10D
:10192000004F02D1364EF16901E0354E7168C0F3C7
:10193000034583B200F44016B6F5401F08D121F0EC
:1019400070612F4E766826F070662D4F7E6012E033
:1019500000F48016B6F5801F06D1032606FA05F4BA
:10196000A14341F0706106E0460D360103FA06F628
:10197000B14341F0706122B1460D360103FA06F61B
:10198000314300F00046B6F1004F02D11C4EF16128
:1019900001E01B4E7160F0BD30B500228B071C0FBB
:1019A0000F2303FA04F2164B08338C1053F824303B
:1019B0009343134C08348D1044F8253023468C1083
:1019C00053F824308C07240F00FA04F423430C4C02
:1019D00008348D1044F8253030BD0A49DC310860E8
:1019E0007047000000080140000C01400010014059
:1019F0000014014000180140001C0140002001407B
:101A0000000001400000204210B50446FE48844218
:101A100008D10121C014FFF7FFFD0021E014FFF7FA
:101A2000FBFDC4E0B4F1804F08D101210846FFF767
:101A300000FE00210120FFF7FCFDB8E0F3488442DE
:101A400008D101210220FFF7F4FD00210220FFF759
:101A5000F0FDACE0EE48844208D101210420FFF7FC
:101A6000E8FD00210420FFF7E4FDA0E0E9488442FE
:101A700008D101210820FFF7DCFD00210820FFF735
:101A8000D8FD94E0E448844208D101211020FFF7FA
:101A9000D0FD00211020FFF7CCFD88E0DF48844214
:101AA00008D101212020FFF7C4FD00212020FFF7ED
:101AB000C0FD7CE0DA48844208D101214014FFF7E0
:101AC000ABFD00216014FFF7A7FD70E0D54884420C
:101AD00009D10121C804FFF79FFD00214FF4002028
:101AE000FFF79AFD63E0D048844209D1012108053F
:101AF000FFF792FD00214FF48010FFF78DFD56E0B7
:101B0000CA48844209D101214805FFF785FD00211B
:101B10004FF40010FFF780FD49E0C548844208D12A
:101B200001214020FFF785FD00214020FFF781FDC6
:101B30003DE0C048844208D101218020FFF779FDB3
:101B400000218020FFF775FD31E0BB48844208D1B9
:101B500001218015FFF76DFD0021A015FFF769FD3C
:101B600025E0B648844209D101210804FFF754FD5D
:101B700000214FF48030FFF74FFD18E0B048844259
:101B800009D101214804FFF747FD00214FF400303F
:101B9000FFF742FD0BE0AB48844208D101218804E5
:101BA000FFF73AFD00214FF48020FFF735FD10BD0F
:101BB00000220288944B98420ED0994B98420BD049
:101BC000B0F1804F08D0914B984205D0904B98428D
:101BD00002D0904B984204D14FF68F731A404B8835
:101BE0001A438D4B984207D08C4B984204D04FF645
:101BF000FF431A40CB881A4302808B8883850B8869
:101C00000385814B98420BD0854B984208D08B4B73
:101C1000984205D08A4B984202D08A4B984201D113
:101C20000B7A038601238382704770B5002400225B
:101C30000023058C4FF6FE7635400584028C8388A0
:101C4000048B4FF68F752C40B51E2C400D882C430D
:101C5000751E2A400D892A434D882A436A4DA842A1
:101C60000BD06F4DA84208D0744DA84205D0744DDA
:101C7000A84202D0734DA84213D14FF6F7752A40FF
:101C80004D892A434FF6FB752A408D882A434FF62B
:101C9000FF652B404FF6FF552B408D892B43CD8997
:101CA0002B4383800483CD888586028470BD70B504
:101CB000002400220023058C4FF6EF763540058482
:101CC000028C8388048B48F6FF752C404FF6FF4545
:101CD0002C400D884FF6FF7606EA05252C434FF67B
:101CE000DF752A400D8906EA05152A434D8806EA64
:101CF00005152A43444DA84202D0494DA8421DD1A2
:101D00004FF67F752A404D894FF6FF7606EA051596
:101D10002A434FF6BF752A408D8806EA05152A43E7
:101D20004FF6FF352B404FF2FF752B408D8906EAA9
:101D300085052B43CD8906EA85052B4383800483E3
:101D4000CD880587028470BD70B500240022002371
:101D5000058C4FF6FF6635400584028C8388848BA2
:101D60004FF68F752C404FF6FC752C400D882C4398
:101D70004FF6FF552A400D894FF6FF7606EA0525F6
:101D80002A434D8806EA05252A431F4DA84202D062
:101D9000234DA8421DD14FF2FF752A404D894FF6C1
:101DA000FF7606EA05252A434FF6FF352A408D883F
:101DB00006EA05252A434EF6FF752B404DF6FF75C2
:101DC0002B408D8906EA05152B43CD8906EA0515BA
:101DD0002B4383808483CD888587028470BD70B552
:101DE000002200230024058C4EF6FF763540058442
:101DF000038C8488828B48F6FF752A404FF6FF4596
:101E00002A400D8820E00000002C01400004004022
:101E100000080040000C004000100040001400408A
:101E200000340140004C014000500140005401408A
:101E300000180040001C004000200040004001400D
:101E400000440140004801404FF6FF7606EA0525B0
:101E50002A434DF6FF752B400D8906EA05352B43C5
:101E60004D8806EA05352B43FA4DA84202D0FA4DBB
:101E7000A84208D14BF6FF752C408D894FF6FF76AE
:101E800006EA85152C4384808283CD88A0F84050D3
:101E9000038470BD828B4FF2FF331A408283828BA2
:101EA0004FF6FF7303EA01231A4382837047F0B5AC
:101EB0000C461546002200210026078C4EF6FF7CBA
:101EC00007EA0C070784828B018C4FF6FF7707EA3D
:101ED000043640F6FF473A404FF6FF7707EA0527FA
:101EE0003A434FF6FF7707EA03373A43D94FB842F0
:101EF0000ED0D94FB8420BD0B0F1804F08D0D74F99
:101F0000B84205D0D64FB84202D0D64FB84206D11B
:101F10004DF6FF77394046F48057394305E047F6E0
:101F2000FF57394044F48057394382830184F0BD20
:101F3000828B4FF6F3731A408283828B0A4382832B
:101F40007047F0B50C461546002200210026078C8C
:101F50004FF6FF6C07EA0C070784828B018C4FF663
:101F6000FF7707EA04264FF60C773A404FF6FF77E3
:101F700007EA03172F433A43B64FB8420ED0B64F85
:101F8000B8420BD0B0F1804F08D0B44FB84205D062
:101F9000B34FB84202D0B34FB84206D14FF6FF5705
:101FA000394046F48077394305E04FF2FF57394016
:101FB00044F48077394382830184F0BD028B4FF271
:101FC000FF331A400283028B4FF6FF7303EA0123AB
:101FD0001A4302837047F0B50C46154600220021D3
:101FE0000026078C4FF6EF7C07EA0C070784028B6C
:101FF000018C4FF6FF7707EA041640F6FF473A4098
:102000004FF6FF7707EA03373A434FF6FF7707EAC1
:1020100005273A438F4FB8420ED08F4FB8420BD0AE
:10202000B0F1804F08D08D4FB84205D08C4FB842E8
:1020300002D08C4FB84206D14FF6DF77394046F0D8
:102040001007394305E04FF65F77394044F0100739
:10205000394302830184F0BD028B4FF6F3731A40BB
:102060000283028B0A4302837047F0B50C46154683
:1020700000220021068C4FF6FE773E400684028B3C
:10208000018C4FF60C7632407E1C06EA03162E4376
:102090003243704EB0420ED06F4EB0420BD0B0F112
:1020A000804F08D06D4EB04205D06D4EB04202D088
:1020B0006C4EB04206D14FF6FD76314044F0010639
:1020C000314305E04FF6F576314044F001063143E7
:1020D00002830184F0BD70B505460C465D4885421B
:1020E0000ED05D4885420BD0B5F1804F08D05B48DB
:1020F000854205D05A48854202D05A48854200D1CF
:1021000000E000BF208850B92389A2886188284652
:10211000FFF7ABFFE1882846FFF79EFF25E0208808
:1021200004280AD12389A28861882846FFF753FF33
:10213000E1882846FFF742FF17E0208808280AD1E7
:102140002389A28861882846FFF7FBFEE18828469C
:10215000FFF7EEFE09E02389A28861882846FFF791
:10216000A6FEE1882846FFF795FE70BD2DE9F041F7
:1021700005460C4600260127608808B9022600E0C3
:102180000026A088012801D1022700E0012720882D
:10219000A0B92389A28861882846FFF766FFE188F5
:1021A0002846FFF759FF23893A4631462846FFF76C
:1021B00012FFE1882846FFF701FF13E02389A28878
:1021C00061882846FFF707FFE1882846FFF7F6FEFB
:1021D00023893A4631462846FFF747FFE1882846DB
:1021E000FFF73AFFBDE8F0810A884B881A438B88D5
:1021F0001A43CB881A430B891A434B891A438B899C
:102200001A43A0F8442070474FF6FF7181800021E7
:102210000180C180418001727047002101804180AE
:102220008180C180018141818181C181704700210C
:1022300001804180012181800021C180018170479E
:102240000021018041808180C180018141818181A3
:1022500070470000002C01400034014000040040A1
:1022600000080040000C004021B1028842F0010249
:10227000028004E002884FF6FE731A400280704725
:1022800031B1B0F8442042F40042A0F8442005E007
:10229000B0F84420C2F30E02A0F8442070471AB1EF
:1022A00083890B43838102E083898B438381704759
:1022B0008182704741EA0203A0F8483070471AB1A2
:1022C00083890B43838102E083898B438381704739
:1022D00001894FF6F8721140018170470A460021CA
:1022E00001894FF68F73194011430181704730B552
:1022F00004460D4629462046FFF7F0FF208940F0AE
:102300000700208130BD2DE9F04104460D461646F8
:102310001F46602D06D13B46012231462046FFF77D
:102320005AFE05E03B46012231462046FFF79DFE5E
:1023300029462046FFF7D2FF208940F00700208180
:10234000BDE8F08130B50C4600210189C9B24FF6D5
:10235000FF7505EA0325154325432943018130BD57
:102360002DE9F04105460E4617469846002443469F
:102370003A4631462846FFF7E5FF2C894FF6F870BC
:10238000044044F007044FF68F70044044F070049A
:102390002C81BDE8F081F0B504460D4616461F4677
:1023A0003B46324629462046FFF7CCFF208940F4C1
:1023B00080402081F0BD0185828270470A4600215D
:1023C00001884FF68F731940114301807047F0B5B3
:1023D0000C4615461E460021002200230189028B6F
:1023E000038C4FF6F877394021434FF6FC473A40CB
:1023F00040F201173A434FF6DD773B404FF6FF7747
:1024000007EA06172F433B43018102830384F0BD93
:102410000A460021018B4FF68F7319401143018347
:1024200070470A460021018B48F6FF7319404FF6AA
:10243000FF7303EA02231943018370470A46002110
:10244000818B4FF68F7319401143818370470A4681
:102450000021818B48F6FF7319404FF6FF7303EAA2
:10246000022319438183704721B1028842F0800220
:10247000028004E002884FF67F731A4002807047A2
:1024800021B1828842F00402828004E082884FF603
:10249000FB731A408280704721B1828842F00802A3
:1024A000828004E082884FF6F7731A40828070477A
:1024B00021B1828842F00102828004E082884FF6D6
:1024C000FE731A40828070470A460021018B4FF646
:1024D000F77319401143018370470A460021018BAD
:1024E0004FF2FF7319404FF6FF7303EA02231943BB
:1024F000018370470A460021818B4FF6F77319401C
:102500001143818370470A460021818B4FF2FF738C
:1025100019404FF6FF7303EA022319438183704782
:102520000A460021018B4FF6FB73194011430183CA
:1025300070470A460021018B4FF6FF3319404FF6D2
:10254000FF7303EA02231943018370470A460021FF
:10255000818B4FF6FB7319401143818370470A4604
:102560000021818B4FF6FF3319404FF6FF7303EACA
:1025700002231943818370470A460021018B4FF6DD
:102580007F7319401143018370470A460021018B74
:10259000C1F30E014FF6FF7303EA022319430183CF
:1025A00070470A460021818B4FF67F731940114313
:1025B000818370470A460021818BC1F30E014FF6DB
:1025C000FF7303EA02231943818370470A460021FF
:1025D000018C4FF6FD7319401143018470470A4680
:1025E0000021018C4FF6F7731940114301847047A5
:1025F0000A460021018C4FF6DF7319404FF6FF7336
:1026000003EA02131943018470470A460021018C32
:102610004FF67F7319404FF6FF7303EA0213194315
:10262000018470470A460021018C4FF6FF53194080
:102630004FF6FF7303EA02231943018470470A46E9
:102640000021018C4FF2FF7319404FF6FF7303EA2C
:1026500002231943018470470A460021018C4DF67C
:10266000FF7319404FF6FF7303EA023319430184E5
:10267000704730B5002301248C40A3B2048C9C43E6
:102680000484048C02FA01F5ADB22C43048430BDFD
:1026900030B5002304248C40A3B2048C9C430484F2
:1026A000048C02FA01F5ADB22C43048430BD70B540
:1026B0000346002000241846183001258D40ACB296
:1026C0001D8CA5431D8409B1082909D100EB6100C7
:1026D000056825F0700505600568154305600EE086
:1026E0000D1FC5F34E052844056825F4E045056037
:1026F00005684FF6FF7606EA02263543056070BD91
:1027000021B1028842F00202028004E002884FF602
:10271000FD731A400280704721B1028842F0040222
:10272000028004E002884FF6FB731A400280704773
:1027300021B1828842F08002828004E082884FF6D4
:102740007F731A408280704702884FF6F7731A40F1
:10275000028002880A430280704782884FF68F7396
:102760001A40828082880A438280704702894FF62D
:10277000F8731A40028102890A4302817047028974
:102780004FF67F731A40028102890A430281704723
:1027900081847047818570478186704701877047C3
:1027A00081877047A0F84010704702884FF6FF43BA
:1027B0001A40028002880A43028070470146888ED0
:1027C00070470146088F70470146888F7047014661
:1027D000B1F8400070470146888C70470146088D6B
:1027E000704702460020138A0B400BB1012000E025
:1027F00000207047CA430282704730B5024600206D
:1028000000230024158A05EA0103958905EA0104DD
:1028100013B10CB1012000E0002030BDCA43028298
:102820007047000001684FF6FE7211400160002100
:10283000016041608160C1608D49884208D18C4946
:102840000839496841F00F01894A083A51608AE025
:1028500087491431884208D185490839496841F0CF
:10286000F001834A083A51607DE08149283188426D
:1028700008D17F490839496841F470617C4A083AB7
:10288000516070E07A493C31884208D17849083972
:10289000496841F47041764A083A516063E07449EE
:1028A0005031884208D172490839496841F4702191
:1028B0006F4A083A516056E06D496431884208D148
:1028C0006B490839496841F47001694A083A516016
:1028D00049E067497831884208D165490839496833
:1028E00041F07061624A083A51603CE061498842B7
:1028F00006D1011F096841F00F01021F116032E08B
:102900005C491431884208D15A49091F096841F0CD
:10291000F001584A121F116025E0564928318842BB
:1029200008D15449091F096841F47061514A121FC6
:10293000116018E04F493C31884208D14D49091FC8
:10294000096841F470414B4A121F11600BE049497C
:102950005031884207D14749091F096841F4702165
:10296000444A121F1160704710B50022026847F6F2
:10297000F0739A430C6A8B6823430C6923434C69B8
:1029800023438C692343CC6923434C6A23438C6AD9
:1029900023431A430260CB6843600B6883604B6833
:1029A000C36010BD0021016041608160C1600161B0
:1029B00041618161C161016241628162704721B1FF
:1029C000026842F00102026004E002684FF6FE7302
:1029D0001A40026070471AB103680B43036002E0BB
:1029E00003688B4303607047416070470146486845
:1029F00080B2704701460020002201F080531BB1D5
:102A00001C4B083B1A6802E0194B083B1A6802EAA3
:102A100001030BB1012000E00020704700F080515D
:102A200019B11449091F086002E0114908394860CA
:102A3000704701460020002201F080531BB10D4B6E
:102A4000083B1A6802E00A4B083B1A6802EA0103D5
:102A50000BB1012000E00020704700F0805119B157
:102A60000449091F086002E00149083948607047BD
:102A7000080002400804024010B50446FB488442A6
:102A800009D101218803FEF7C7FD00214FF48040E2
:102A9000FEF7C2FD32E0F648844209D10121480424
:102AA000FEF7C7FD00214FF40030FEF7C2FD25E020
:102AB000F048844209D101218804FEF7BAFD0021C3
:102AC0004FF48020FEF7B5FD18E0EB48844209D1B1
:102AD0000121C804FEF7ADFD00214FF40020FEF7F0
:102AE000A8FD0BE0E548844208D101210805FEF766
:102AF000A0FD00214FF48010FEF79BFD10BD2DE9D5
:102B0000F04786B005460E460024A24600BFA14607
:102B10000027B08900B100BF2F462C8A4CF6FF7009
:102B20000440F08804432C82AC894EF6F310044034
:102B3000B08831890843718908430443AC81AC8A69
:102B40004FF6FF400440B0890443AC8201A8FEF771
:102B5000DCFCC648874202D1DDF810A001E0DDF8B8
:102B60000CA0A88900F4004040B10AEBCA0000EBB9
:102B70000A1031684900B0FBF1F807E00AEBCA001F
:102B800000EB0A1031688900B0FBF1F86420B8FB53
:102B9000F0F004012009642101FB1089A88900F4E8
:102BA000004040B1322000EBC900B0FBF1F000F072
:102BB0000700044308E0322000EB09106421B0FB59
:102BC000F1F000F00F0004432C8106B0BDE8F0875F
:102BD0004FF41651016000218180C18001810C21D8
:102BE000418100218181704710B502460020108A82
:102BF0004FF2FF0318400B884C8823438C882343F3
:102C0000CC8823431843108210BD002101804180ED
:102C10008180C180704721B1828942F40052828153
:102C200004E082894DF6FF731A4082817047F0B547
:102C30000346002400260025002040F66A17B9420A
:102C400000D100BF1846C1F3421401F01F0601274E
:102C500007FA06F5012C01D10C3004E0022C01D159
:102C6000103000E014301AB107682F43076002E00B
:102C70000768AF430760F0BD1AB1838A0B438382B4
:102C800002E0838A8B4383827047028A4FF6F07397
:102C90001A400282028A0A430282704782894FF2F6
:102CA000FF731A40828182890A438281704721B171
:102CB000828942F00202828104E082894FF6FD732C
:102CC0001A4082817047028A4FF6DF731A400282EF
:102CD000028A0A430282704721B1028A42F480428A
:102CE000028204E0028A4BF6FF731A4002827047A8
:102CF000C1F308028280704701468888C0F308004B
:102D00007047818941F0010181817047028BD2B205
:102D10000283028B42EA012202837047028B02F493
:102D20007F420283028B0A430283704721B1828A69
:102D300042F02002828204E0828A4FF6DF731A405A
:102D40008282704721B1828A42F01002828204E0BE
:102D5000828A4FF6EF731A408282704721B1828ACD
:102D600042F00802828204E0828A4FF6F7731A402A
:102D70008282704721B1828942F40042828103E05D
:102D80008289C2F30E028281704721B1828A42F4A5
:102D90000062828204E0828A4FF2FF731A408282CC
:102DA0007047828A4FF6FB731A408282828A0A43F6
:102DB0008282704721B1828A42F00202828204E05C
:102DC000828A4FF6FD731A408282704702460020C5
:102DD000B1F5007F00D100BF13880B400BB101207B
:102DE00000E00020704701F40072B2F5007F00D1CE
:102DF00000BFCA430280704770B50246002400231A
:102E00000025002040F66A16B14200D100BFC1F390
:102E1000421501F01F03012606FA03F3012D02D12A
:102E20009689334006E0022D02D1168A334001E034
:102E3000968A33400C12012606FA04F416883440B0
:102E400013B10CB1012000E0002070BD10B50022CC
:102E5000002340F66A14A14200D100BF0A120124E7
:102E60009440A3B2DC43048010BD00000038014050
:102E70000044004000480040004C0040005000402A
:102E800031490143314A1160704770B50021002378
:102E90000F22C47804B32D4C246804F4E064C4F514
:102EA000E064210AC1F10403CA40447804FA03F142
:102EB0008478144021430901254C0678A1550478F3
:102EC00004F01F050124AC4005786D11AD0005F13B
:102ED000E025C5F8004109E0047804F01F0501244D
:102EE000AC401C4D0678761145F8264070BD1A4A54
:102EF0000A400243154B1B1F1A60704739B1134A31
:102F0000121D12680243114B1B1D1A6006E00F4A86
:102F1000121D126882430D4B1B1D1A607047042856
:102F200008D14FF0E021096941F004014FF0E0229F
:102F3000116107E04FF0E021096921F004014FF031
:102F4000E0221161704700000000FA050CED00E07E
:102F500000E400E080E100E080FFFF1F0020444922
:102F60000860091D0860091D0860091D08604148C6
:102F70003F4914310860704700213D498279002A99
:102F80003AD00A46126803689A430B461A600A1D33
:102F9000126803689A430B1D1A60027911440A688B
:102FA00003681A430A60324A0832126803689A4377
:102FB0002F4B08331A601A1D126803689A432C4B72
:102FC0000C331A604279102A0ED11A1F1268036856
:102FD0001A43274B08331A601A1D126803681A43F4
:102FE000234B0C331A600DE02149427911440A68E1
:102FF00003681A430A6005E0027911440A6803680D
:103000009A430A6070470021016001710C214171EF
:103010000021817170471649103109680143144A33
:1030200010321160704701460020114A14321268B4
:103030000A400AB1012000E0002070470C49143119
:1030400008607047014600200022094B1B6803EA14
:103050000102074B14331B680B4013B10AB1012066
:1030600000E00020704702491431086070470000FA
:1030700000040140FFFF0F0010B50446FE488442E3
:1030800009D101214806FEF7D4FA00214FF0007063
:10309000FEF7CFFA08E001218806FEF7CAFA002100
:1030A0004FF08060FEF7C5FA10BD30B50246002033
:1030B0000023146824F002041460146844F001042E
:1030C000146000E05B1C546804F001041CB94FF666
:1030D000FF74A342F6D1546804F001040CB9002037
:1030E0006CE08C79012C04D1146844F080041460E5
:1030F00003E0146824F080041460CC79012C04D11E
:10310000146844F04004146003E0146824F04004A0
:1031100014600C7A012C04D1146844F0200414606B
:1031200003E0146824F0200414604C7A012C04D1CC
:10313000146844F01004146003E0146824F01004D0
:1031400014608C7A012C04D1146844F008041460D3
:1031500003E0146824F008041460CC7A012C04D134
:10316000146844F00404146003E0146824F00404B8
:1031700014608C78A407CD7844EA05640D7944EA9C
:1031800005444D7944EA05540D886D1E2C43D461E5
:10319000146824F001041460002300E05B1C5468F0
:1031A00004F001041CB14FF6FF74A342F6D1546839
:1031B00004F001040CB1002000E0012030BD10B586
:1031C0000021837A012202FA03F1AC4A126842F02C
:1031D0000102AA4B1A60A94A1C3212688A43A74B03
:1031E0001C331A60027BCAB9A44A0C3212688A43A3
:1031F000A24B0C331A604288C38842EA03439F4AB9
:103200004032847A42F834300288838842EA0343A9
:103210009A4A4032847A02EBC4025360027B012A4C
:1032200019D1964A0C3212680A43944B0C331A6037
:103230004288038842EA0343904A4032847A42F843
:103240003430C288838842EA03438C4A4032847A0D
:1032500002EBC4025360C27A3AB9884A121D12685E
:103260008A43864B1B1D1A6006E0844A121D1268B1
:103270000A43824B1B1D1A60028932B97F4A1432FD
:1032800012688A437D4B14331A600289012A06D1E1
:103290007A4A143212680A43784B14331A60427B1C
:1032A000012A06D1754A1C3212680A43734B1C333B
:1032B0001A60724A126822F00102704B1A6010BD47
:1032C00000218171C171017241728172C17281707C
:1032D000C1700321017102214171012101807047F8
:1032E0006649096841F00101644A116011460968A4
:1032F00043F60E729143614A11601146096841EA32
:10330000002111601146096821F001011160704728
:1033100021B1026842F48032026003E0026822F4C4
:10332000803202607047E1B1026842F080020260C0
:103330004FF4C272125842F480734FF4C2721350A9
:103340004FF4CA72125842F480734FF4CA72135089
:103350004FF4D272125842F480734FF4D272135069
:103360001BE0026822F0800202604FF4C272125821
:1033700022F480734FF4C27213504FF4CA72125881
:1033800022F480734FF4CA7213504FF4D272125861
:1033900022F480734FF4D2721350704710B5024676
:1033A0000020936803F08063B3F1806F00D110E0D8
:1033B000936803F00063B3F1006F01D1012008E0CE
:1033C000936803F08053B3F1805F01D1022000E0E5
:1033D0000420042879D002F5C07303EB00131B68A6
:1033E00003F0010402F5C07303EB00131C600B7AB9
:1033F0007BB94B7A0C8843EA445302F5C07404EB62
:1034000000142468234302F5C07404EB0014236005
:1034100010E00B7A4C6843EAC4034C7A234302F56C
:10342000C07404EB00142468234302F5C07404EB59
:10343000001423608B7A03F00F038B7202F5C073C4
:1034400003EB00135B6823F00F0402F5C07303EB7A
:1034500000135C6002F5C07303EB00135B688C7AA9
:10346000234302F5C07404EB001463608B7B1C06DD
:103470004B7B44EA034403E00064004000660040E4
:103480000B7B44EA0323CC7A234302F5C07404EB9C
:103490000014A3608B7C1C064B7C44EA03440B7C29
:1034A00044EA0323CC7B234302F5C07404EB0014ED
:1034B000E36002F5C07303EB00131B6843F00104E3
:1034C00002F5C07303EB00131C6010BD10B502467B
:1034D000002321B1012907D002290FD109E090680A
:1034E000F94C00EA04030BE09068F84C00EA04038E
:1034F00006E09068F64C00EA040301E0002300BFF8
:1035000000BFF44C181BA34216D007DC83B16FF048
:103510008060184470B1022818D111E0B0F5007F26
:1035200010D0ED4C204448B1B0F5003F0ED10BE077
:1035300002230DE000230BE0002309E0002307E055
:10354000012305E0012303E0012301E0002300BF84
:1035500000BFD8B210BD21B1012907D002290FD177
:1035600009E0826842F0800282600AE0826842F4E8
:103570000042826005E0826842F40002826000E05E
:1035800000BF00BF704710B500F5D87303EB0113FF
:103590001B6803F004031372137A53B900F5D87350
:1035A00003EB01131B6840F2FF7404EA53531360EA
:1035B00009E000F5D87303EB01131B686FF060445A
:1035C00004EAD303536000F5D87303EB01131B68BF
:1035D00003F00203537200F5D87303EB01135B6829
:1035E00003F00F03937200F5D87303EB01135B68CC
:1035F0001B0AD37400F5D87303EB01139B68D372D5
:1036000000F5D87303EB01139B681C0A147300F5D3
:10361000D87303EB01139B681C0C547300F5D8732B
:1036200003EB01139B681B0E937300F5D87303EB38
:103630000113DB68D37300F5D87303EB0113DB6868
:103640001C0A147400F5D87303EB0113DB681C0C1F
:10365000547400F5D87303EB0113DB681B0E9374ED
:1036600021B9C36843F02003C36003E0036943F05A
:103670002003036110BD21B9C26842F02002C2607C
:1036800003E0026942F02002026170470246002016
:1036900019B9D36803F0030006E0012903D11369C7
:1036A00003F0030000E00020704710B502460B460F
:1036B00000204FF6FF71BBB9146824F0020444F0F7
:1036C0000104146000E0491E546804F00304012C56
:1036D00001D00029F7D1546804F00304012C01D073
:1036E000002032E0012030E0012B13D1146824F0D7
:1036F0000304146000E0491E546804F003040CB194
:103700000029F8D1546804F003040CB100201CE037
:1037100001201AE0022B17D1146824F0010444F0B0
:103720000204146000E0491E546804F00304022CF3
:1037300001D00029F7D1546804F00304022C01D011
:10374000002002E0012000E0002010BD0146002022
:103750000A6822F0010242F002020A604A6802F09E
:103760000302022A00D10120704701464FF6FF7282
:1037700000200B6823F002030B6000E0521E4B6830
:1037800003F00203022B01D1002AF7D14B6803F0AA
:103790000203022B00D001207047014600208A69F5
:1037A00002F070007047014600208A69100E7047D1
:1037B000014600208A69C2F3074070471AB1436985
:1037C0000B43436102E043698B434361704710B58B
:1037D0000246002001F4700343B19369C1F313045E
:1037E00023400BB101202DE000202BE001F080737D
:1037F00043B15368C1F3130423400BB1012021E00E
:1038000000201FE001F0006343B19368C1F313048B
:1038100023400BB1012015E0002013E001F00073FC
:1038200043B1D368C1F3130423400BB1012009E075
:10383000002007E01369C1F3130423400BB10120FA
:1038400000E0002010BD0022244B994202D1002349
:10385000836111E0C1F3130201F000730BB1C26088
:103860000AE001F080630BB1026105E001F0006342
:103870000BB1826000E0426070470246002002EA1D
:1038800001030BB1012000E00020704770B5044631
:103890000D46002660692840002872D0B5F5807F6B
:1038A00069D01DDC082D42D006DC012D2DD0022D63
:1038B00031D0042D7FD134E0102D3ED0202D42D0C8
:1038C000402D78D145E0000003000004000300080B
:1038D00000000310000100080001FFF77000F03045
:1038E000B5F5004F61D009DCB5F5007F4AD0B5F5DC
:1038F000806F4DD0B5F5006F5DD150E0B5F5803FDC
:103900002DD0B5F5003F56D12FE0A0685549FFF7FF
:10391000B4FF064651E0E0680321FFF7AEFF06461C
:103920004BE0E0680821FFF7A8FF064645E0E068A5
:103930001021FFF7A2FF06463FE020690321FFF7B1
:103940009CFF064639E020690821FFF796FF0646EE
:1039500033E020691021FFF790FF06462DE06068F4
:103960000821FFF78AFF064627E060681021FFF76D
:1039700084FF064621E0A0690121FFF77EFF06468D
:103980001BE01BE0A0690221FFF777FF064614E069
:10399000A0690421FFF771FF06460EE00BE0A06965
:1039A0007021FFF76AFF064607E060680421FFF711
:1039B00064FF064601E0002600BF00E00026304616
:1039C00070BDB1F5007F3AD00FDC202928D006DC8D
:1039D00001291CD004291DD0082940D11DE040290F
:1039E00021D0B1F5807F3AD126E0B1F5004F31D03A
:1039F00006DCB1F5806F25D0B1F5006F2FD124E042
:103A0000B1F5803F12D0B1F5003F28D111E0154A41
:103A1000826025E00822C26022E01022C2601FE01E
:103A2000082202611CE01022026119E008224260B3
:103A300016E01022426013E00422426010E00422EB
:103A400042600DE0042242600AE00022826104220A
:103A5000426005E0002282610422426000E000BF73
:103A600000BF7047010101000CB5002001900090DB
:103A70006C48006840F480306A49086000BF6948BB
:103A8000006800F4003000900198401C01900098FC
:103A900018B90198B0F5A06FF1D16248006800F440
:103AA000003010B10120009001E00020009000984B
:103AB000012843D15C48006840F010005A49086072
:103AC0000846006820F0030008600846006840F0DF
:103AD0000200086053484068524948600846406800
:103AE00048600846406840F4806048600846406886
:103AF00020F47C1048600846406840F4E8104860B4
:103B00000846006840F08070086000BF45480068C3
:103B100000F000700028F9D04248406820F003000F
:103B2000404948600846406840F00200486000BFD5
:103B30003C48406800F00C000828F9D10CBD10B5D5
:103B4000FFF792FF10BD10B53648006840F0010045
:103B500034490860084640683449084031494860A3
:103B600008460068324908402E4908600846006847
:103B700020F4802008600846406820F4FE00486079
:103B80004FF41F008860FFF7DAFF4FF0006029490B
:103B9000086010BD10B5002100200022214B5B6899
:103BA00003F00C0121B1042906D0082928D107E02F
:103BB000214B224C236027E01F4B204C236023E045
:103BC000184B5B6803F47010164B5B6803F480328B
:103BD000022303EB904022B9194B4343174C236057
:103BE0000DE0104B5B6803F4003323B1144B4343E7
:103BF000124C236003E0104B4343104C236003E05E
:103C00000D4B0E4C236000BF00BF064B5B68C3F337
:103C100003130C4CE15C094B1B68CB40074C236041
:103C200010BD000000100240002002400000FFF81C
:103C3000FFFFF6FE08ED00E000127A0050000020C1
:103C400000093D0054000020F0B480EA0102D40FC6
:103C50004200B2EB410F02D20246084611464A002A
:103C600042D0C30DDDB2C1F3C752AD1A202D35DAF3
:103C7000C1F3160141F4000204B15242C5F120061D
:103C800002FA06F12A411044B3EBD05F23D0C4B14D
:103C9000012DA0EBC35009DCF0BC4FF0004202EA5A
:103CA000C352DBB200F5000000F0FBB9400000F1A8
:103CB000807000EBC350A0F1807040EAD1704900E1
:103CC00009E0490841EAC071A0EBC35000F50000CB
:103CD000400800EBC350F0BC00F0DAB961420122A9
:103CE00002EB4101001BF6E7F0BC704781F0004198
:103CF000AAE780F00040A7E780EA010210B502F0D1
:103D00000043400022D04A001FD0010E01EB126197
:103D1000C0F35600C2F3560240F4000042F4000221
:103D2000A0FB022000047F39140400D0401C50EA9C
:103D3000124001D44000491EC2B20C0604EBD01060
:103D4000401C4008802A02D003E0002010BD20F073
:103D50000100002900DA0020184310BD30B480EAC9
:103D6000010202F0004530F0004221F0004013D083
:103D700090B1C30DD40DC2F31601C0F31600E41ABE
:103D800041F4000140F400027D34914201D3641CEF
:103D900000E04900002C02DA30BC002070474FF4EC
:103DA00000000023914201D3891A034340084FEADF
:103DB0004101F7D151B1914202D14FF0004105E0EC
:103DC00002D24FF0010101E06FF0010103EBC4509A
:103DD000284430BC00F05CB92DE9FE4F81EA0304B1
:103DE00004F0004421F0004100944FF0000B23F058
:103DF000004350EA01045ED052EA03045BD0C3F3EF
:103E00000A54C1F30A552C44A4F2F3340194A0FBE4
:103E10000254C1F3130141F48011C3F3130343F4BB
:103E2000801301FB024400FB034E840A970A44EA14
:103E3000815447EA8357A4FB076802958D0A05FB66
:103E400007854FEA932C04FB0C542705029D4FEA8B
:103E5000065847EA1637B5EB08056EEB070C870ED8
:103E6000920E47EA811742EA8312A7FB0201B6EBE2
:103E70000B0164EB00042B0D43EA0C335E1844EB9A
:103E80001C50DA465146E7FB0201C5F313044FEA22
:103E90000B3343EA14534FEA0432019C43EA06030E
:103EA000A4F10C040294009CCDE900B400F034F9B4
:103EB00003B0BDE8F08F00200146F9E72DE9F04D91
:103EC00081EA030404F0004B21F0004514464FF052
:103ED000000A23F0004150EA050220D054EA010212
:103EE0001DD0C5F30A570246C5F31303C1F31300EF
:103EF000C1F30A5640F4801543F48013A7EB06087B
:103F0000101BD64608F2FD3873EB050002D308F10A
:103F1000010801E092185B41B8F1000F03DA0020BC
:103F20000146BDE8F08D00204FF48011064684461E
:103F30000EE0171B73EB050705D3121B63EB05039C
:103F400006434CEA010C49084FEA300092185B41E5
:103F500050EA0107EDD152EA030012D082EA0400D0
:103F600083EA0501084305D0101BAB4106D20122AC
:103F7000002306E000224FF0004302E06FF0010250
:103F800053101AEB06004CEB085110EB0A0041EB02
:103F90000B01BDE8F04D00F0B2B8C10F80EAE0704F
:103FA0000844CA079623002100F07BB8962300221C
:103FB000114600F076B80EB5C10F80EAE0700844F3
:103FC000CA07002140F233438DE80E000A460B4633
:103FD00000F0A2F803B000BD00F0004220F0004065
:103FE000C10DC0F3160040F400007F2901DA002063
:103FF0007047962903DCC1F19601C84001E096396B
:104000008840002AF4D04042704700F0004230F06F
:1040100000400AD0C10D01F56071C0F3160042EAFC
:104020000151C20840071143704700200146704704
:1040300001F0004330B421F0004150EA010206D003
:104040000A0DA2F56072C1F31301002A02DC30BC34
:1040500000207047440F44EAC104C100E01830BC9E
:1040600000EBC25000F014B8002801DBC0F10040A2
:10407000002901DBC1F1004181427047002801DBCA
:10408000C0F10040002901DBC1F1004188427047C6
:104090000029A8BF7047401C490008BF20F001005C
:1040A000704710B4B0FA80FC00FA0CF050EA01043A
:1040B00004BF10BC704749B1CCF1200421FA04F4CC
:1040C00011FA0CF118BF012121430843A3EB0C01A5
:1040D000CB1D4FEA00614FEA102042BF002010BC08
:1040E000704700EBC35010440029A4BF10BC7047B8
:1040F000401C490008BF20F0010010BC704710B5FB
:10410000002B08DA401C41F1000192185B411A4370
:1041100001D120F0010010BD2DE9F04D92469B46E3
:1041200011B1B1FA81F202E0B0FA80F22032904689
:1041300000F06AF804460F4640EA0A0041EA0B0123
:1041400053465A46084313D0114653EA010019D08A
:10415000C8F14002504600F066F805460E4650464B
:104160005946424600F050F8084305D0012004E0CB
:1041700020463946BDE8F08D0020054346EAE0764A
:104180002C4337430A986305E40AA0EB0800002299
:10419000FD0A44EA47540A3002D500200146E9E707
:1041A000010510196941DDE9084500196941BDE8BB
:1041B000F04DA4E770B521F0004303430CD0C1F3E8
:1041C0000A550024D5EB040564EB0403D617AD1A99
:1041D000B34102DB0020014670BD201841EB0251C3
:1041E00070BD0000064C074D06E0E06840F001039A
:1041F00094E8070098471034AC42F6D3FBF77AFFF7
:10420000604C0008804C0008202A04DB203A00FAA9
:1042100002F1002070479140C2F1200320FA03F31D
:10422000194390407047202A04DB203A21FA02F01B
:104230000021704721FA02F3D040C2F120029140E0
:104240000843194670472DE9FE4F804681EA030076
:10425000C00F0C46009021F0004123F00045B8EB60
:104260000200A94105D24046214690461C460B4615
:10427000024623F00040104347D0270DC7F30A0041
:10428000C3F30A510290401A019040286BDAC3F33D
:10429000130040F4801B0098924620B10023D2EB1B
:1042A000030A63EB0B0B01985946C0F140025046DC
:1042B000FFF7AAFF06460D4650465946019A00F000
:1042C00095F810EB08006141002487EA115284EA56
:1042D000E7731A4340D0009A62B3019A012A4FEA69
:1042E000075215DC001B61EB02014FF0004202EAAD
:1042F0000752CDE90042001C41F5801132462B46A1
:10430000FFF70AFF03B0BDE8F08F40462146F9E70A
:10431000001B61EB0201001C41F5801300185B419A
:104320002018A2F5001747EB030140EAD570B61933
:104330006D4111E06D084FEA360645EAC0754FEA57
:104340000752001B61EB0201001C41F58011490876
:104350004FEA30000019514132462B4603B0BDE808
:10436000F04FFFF7CCBE0098012240000023D0EBB5
:10437000020263EBE073009821464FEAE074B8EB69
:10438000000061EB0401E9E783F000435BE781F0A3
:10439000004158E70EB540F2334102910021CDE9CA
:1043A00000110A460B46FFF7B7FE03B000BD70B51B
:1043B000C1F30A5201F000450024C1F3130140F299
:1043C000FF3341F480119A4201DA002070BD40F2BF
:1043D00033439A42A2F2334203DC5242FFF723FFF7
:1043E00000E090402C43F1D0404270BD202A06DB13
:1043F000CB17203A41FA02F043EAE07306E041FAB3
:1044000002F3D040C2F120029140084319467047A0
:10441000490050EAC12018BF04204A0D18BF40F0DF
:10442000010040F2FF72B2EB515F08BF40F00200A2
:10443000012808BF052070472DE9F74F144696B0B4
:104440000021C4E902111799089121F00045CA49D9
:104450008D4206DC1799C4E9000119B00020BDE8BF
:10446000F08FC649DFF818A3A9423CDD0899C54E74
:104470000029C54FC54A1799534619DDFFF784FF38
:10448000554506D0C24AC34BFFF77EFFC4E9000181
:104490000AE04FF0D352BF4BFFF776FF32463B4660
:1044A000FFF772FFC4E9000119B00120BDE8F08FE9
:1044B000FFF7C9FE554506D0B54AB64BFFF7C3FE18
:1044C000C4E900010AE04FF0D352B24BFFF7BBFE44
:1044D00032463B46FFF7B7FEC4E9000119B04FF082
:1044E000FF30BDE8F08FAC49A942179978DB21F085
:1044F00000488346A94AAA4B4146FFF76DFC0022BB
:10450000A84BFFF7A0FEFFF752FF0990FFF753FDFE
:1045100006460F469D4A5346FFF75EFC5A46434601
:10452000FFF735FF80468A46994A9A4B304639460E
:10453000FFF752FC2A0D01250B9242465346FFF726
:1045400026FF032DC4E9000139D00B98C1F30A51AD
:10455000401A05EB45111139814230DA9248C346C1
:10456000784400EB0510CDF81CA00C90D0E9002396
:1045700030463946FFF730FCCDE9020102460B46D2
:1045800058460799FFF700FF80468A4602460B46C9
:1045900058460799FFF7F8FEDDE90223FFF7F4FE1E
:1045A00083460C9803913946D0E902233046FFF741
:1045B00013FC5A46039BFFF7E7FE6D1CBDE7089806
:1045C0000028A2BF099819B0BDE8F08F616881F09A
:1045D00000416160099819B04042BDE8F08FFFE7E3
:1045E000C1F3130141F480110E911799C1F30A51DF
:1045F000A1F2F532511102F01F08C8F12002129207
:1046000000220C920D92694A7A4402EB810101F179
:10461000140C0DA95FF00607DCF80020DCF804504C
:1046200002FA08F3129AD1F800A025FA02F21A430E
:104630000E9BA2FB0356A2FB00329A4415449A45F6
:1046400034BF4FF0010B4FF0000B51F8043C05EB69
:104650000B0E7344954234BF012200221644BBF175
:10466000000F02D0AB4202D903E0AB4201D20122DB
:1046700000E0002241F808A93244E1E801237F1E4E
:10468000ACF1040CC8D10898DDE90A6500F10050CE
:10469000800F11900898099F8000FFF78CFC8046DE
:1046A0008A463846FFF776FE6FF01D02FFF782FD5F
:1046B000074630460591FFF76DFE6FF03D02FFF7AC
:1046C00079FDCDE903102846FFF764FE6FF05D0227
:1046D000FFF770FD064602460B460191DDE9031027
:1046E000FFF7B1FD3A46059BFFF7ADFD4246534645
:1046F000FFF7A9FD00200D46834642465346FFF7CB
:1047000043FE3A46059BFFF73FFEDDE90332FFF724
:104710003BFE3246019BFFF73AFEDFF89880244AC1
:104720004346FFF759FB06460F46234A234B58469C
:104730002946FFF751FB32463B46FFF784FD0F4603
:1047400006464FF0A842434658462946FFF744FB29
:1047500032463B46FFF777FD179A12F0004F04D020
:10476000119A81F0004152421192C4E9000111985E
:1047700019B0BDE8F08F0000FB21E93F7CD9024071
:10478000FB21F93F7370032E8A19A33B00004054AC
:104790003163621A61B4D03DFB21394183C8C96DD0
:1047A000305FE43F0000E03F0C060000940500008D
:1047B000182D4454FB21F93D3326A611460B113C1C
:1047C0002DE9FF4D21F0004807460C46B8F1795F0E
:1047D00008DAFFF7ECFD002801BF0020324904B0E1
:1047E000BDE8F08D3A46234610461946FFF7F4FA25
:1047F000054602462D480E460B460621784400F039
:104800005DF82A463346FFF7E7FADDE902238246E0
:104810008B4638462146FFF7DFFA04460F465246DC
:104820005B4628463146FFF7D7FA22463B46FFF75C
:10483000ABFD07468A464FF0FF3228463146FFF768
:10484000B9FC1B4A90450ADA3A465346FFF79CFDED
:1048500004B00022BDE8F04D134BFFF798BD154A98
:104860004245A8BFA8F500154FF00004B8BF124D8F
:1048700022462B46FFF788FD0646884622462B46F1
:1048800000200949FFF780FD04460D463A4653468D
:1048900030464146FFF778FD04B022462B46BDE87E
:1048A000F04DFFF774BD00000000F03F4003000032
:1048B0003333D33F0000E93F0000D23F2DE9F04100
:1048C0004F1E00EBC7010446D1E9000115461E4604
:1048D00037F006020DD02A463346FFF77DFA7F1ED9
:1048E00004EBC703D3E90023FFF7ADFC37F0060262
:1048F000F1D1022F25D0042F13D0062F18BFBDE809
:10490000F0812A463346FFF767FAD4E90A23FFF716
:104910009AFC2A463346FFF75FFAD4E90823FFF7EB
:1049200092FC2A463346FFF757FAD4E90623FFF7ED
:104930008AFC2A463346FFF74FFAD4E90423FFF7EF
:1049400082FC2A463346FFF747FAD4E90223FFF7F1
:104950007AFC2A463346FFF73FFAD4E90023BDE844
:10496000F041FFF770BC00002DE9FF4D054621F036
:10497000004084B00C46B0F1795F0BDA2846FFF7AF
:1049800047FD042808BF00F065F8284608B0214616
:10499000BDE8F08D2A460B461046FFF71DFA064685
:1049A0000F462A462346FFF717FA804626488A46CE
:1049B00032463B4605217844FFF780FF8346109836
:1049C000029160B3214A224B40465146FFF704FA58
:1049D000CDE900015A4640465146029BFFF7FCF9DB
:1049E00082468846DDE906014FF0FF32FFF7E2FB21
:1049F00052464346FFF7C8FC32463B46FFF7ECF908
:104A0000DDE90623FFF7C0FCDDE90023FFF7BCFC6E
:104A100008B02A462346BDE8F04DFFF7B8BC0B4668
:104A20005A4630463946FFF7D7F9084A084BFFF790
:104A30000AFC42465346FFF7CFF908B02A46234600
:104A4000BDE8F04DFFF7FFBB7E020000495555550C
:104A50005555C5BF024A00201107FFF7ABBB000048
:104A600001FDFFFF02E008C8121F08C1002AFAD1A9
:104A700070477047002001E001C1121F002AFBD1DE
:104A80007047000001490860704700006400002082
:104A900000B5294B21F0004287B09A4203DC002286
:104AA0001346009233E0254B9A420DD168B94FF07E
:104AB0000100FFF7E7FF002207B01346104611463A
:104AC0005DF804EBFFF7FAB906DB07B04FF001021F
:104AD0005DF804EBFFF76EBB02AAFFF7ADFC10F028
:104AE00003014FF001000DD0012914D002291AD082
:104AF0000DF1080C9CE80F00FFF762FE07B081F093
:104B0000004100BD0DF1080C00909CE80F00FFF77C
:104B10002BFF07B000BD0DF1080C9CE80F00FFF75C
:104B20004FFE07B000BD0DF1080C00909CE80F008F
:104B3000FFF71AFFE2E70000FB21E93F0000F07FEA
:104B40004C5555555555A53F7751C1166CC156BFAB
:104B50009015CB19A001FA3EAD529C804F7E92BEBB
:104B6000C4B1B4BD9EEE213ED43888BEE9FAA8BDDA
:104B700000004054FB21F93F3163621A61B4D03D1B
:104B80000000601A61B4D03D7370032E8A19A33BF4
:104B90000000002E8A19A33BC14920259A837B3946
:104BA00000000000000000006E83F9A22915444EA9
:104BB000D15727FCC0DD34F5999562DB4190433C29
:104BC000AB6351FE61C5BBDE3A6E24B7E0D24D4205
:104BD000EA2E49061C92D1091CEB1DFE3EA729B105
:104BE000F53582E88444BB2E26709CE9417E5FB493
:104BF00039D69139F43953838B5F849C3B28F9BDB6
:104C0000FF97F81F0F9805DE8B112FEF1F6D0A5AC3
:104C1000CF7E366DB709CB27663F464F2DEA5F9EA4
:104C2000C7BA27757BF1E5EBF739073DEA92528A5F
:104C3000B15FFB6B085D8D1FA6F810111111813F4C
:104C4000D561C119A0012ABF7DFEB157E31DC73E42
:104C5000EB9C2B8AE6E55ABE7CD5CF5A3AD9E53D86
:104C6000804C00080000002068000000644A000832
:104C7000E84C000868000020C0150000744A0008D5
:104C8000DC05000000000000000000000000000043
:104C9000555555555555555500000000000000006C
:104CA0000000000000000000000000000000000004
:104CB00000000000000000000000000000000001F3
:104CC000020304010203040607080902040608009F
:104CD00000A24A04000000000000000001020304DA
:084CE0000607080900000000AE
:04000005080000ED02
:00000001FF
